:0200000260009C
:10C00000000002205DC3060045C3060047C30600CA
:10C0100049C306004BC306004DC3060000000000E4
:10C020000000000000000000000000004FC30600F8
:10C0300051C306000000000053C3060055C30600AC
:10C04000C50F070057C30600F50F070057C30600CA
:10C0500057C3060057C3060057C3060057C3060060
:10C0600057C3060057C3060057C3060057C3060050
:10C0700057C3060057C3060057C3060057C3060040
:10C08000B545070057C3060057C3060057C306004F
:10C0900057C3060057C3060057C3060057C3060020
:10C0A00057C3060057C3060057C3060057C3060010
:10C0B00057C3060057C30600000000000000000040
:10C0C00057C3060057C3060057C30600D50F070025
:10C0D000193F070057C3060057C30600092207008F
:10C0E00057C3060000000000000000000000000030
:10C0F0000000000057C306000000000057C3060000
:10C10000000000000000000000000000000000002F
:10C11000000000000000000000000000000000001F
:10C12000000000000000000000000000000000000F
:10C1300000000000000000000000000000000000FF
:10C1400000000000000000000000000000000000EF
:10C1500000000000000000000000000000000000DF
:10C1600000000000000000000000000000000000CF
:10C1700000000000000000000000000000000000BF
:10C1800000000000000000000000000000000000AF
:10C19000000000000000000000000000000000009F
:10C1A000000000000000000000000000000000008F
:10C1B000000000000000000000000000000000007F
:10C1C000000000000000000000000000000000006F
:10C1D000000000000000000000000000000000005F
:10C1E000000000000000000000000000000000004F
:10C1F000000000000000000000000000000000003F
:10C20000314932480A1A02D0072291438D463049FB
:10C2100030480A1A06D00722914381F30988022286
:10C2200082F314882C482D492D4A00F03CF82D4803
:10C230002D492E4A00F037F82D482E492E4A00F09D
:10C2400032F82E482E492F4A00F02DF82E482F495B
:10C250002F4A00F028F82F482F49304A00F023F8E1
:10C260002F483049304A00F01EF83048304900224B
:10C2700000F024F82F483049002200F01FF82F4A20
:10C2800090471F481F49884205D00268043003B414
:10C29000904703BCF7E700208646EC4600200021CB
:10C2A000274A9047FEE7884207D0521A05D0037804
:10C2B00001300B700131013AF9D17047884202D048
:10C2C00002700130FAE770470000022000F80120F8
:10C2D000000002200000022038AC07001C000020F3
:10C2E00078000020A4C30600A4C30600D47407008D
:10C2F00038AC07001C0000201C000020C07507009F
:10C30000C0750700C0750700C0750700C07507003D
:10C31000C0750700C0750700C075070037AC07007F
:10C3200094AC0700780000207800002078000020FE
:10C33000CC620020CC620020CC62002073C30600D7
:10C3400079280700FEE7FEE7FEE7FEE7FEE7FEE7E7
:10C35000FEE7FEE7FEE7FEE700F002B8FFF7FCBFEE
:10C360000B484FF00701884385460A488047FFF78E
:10C3700047BF094809490A4A884207D0521A05D0DE
:10C38000037801300B700131013AF9D17047000098
:10C3900000000220B5460700AC7507000800002029
:04C3A0001C0000205D
:10C3A4000020704738B504462B482C4D03F09CFC04
:10C3B4002B4B29481C6003F0D5FC2A4BED1AED08E1
:10C3C4002D0438B9284945F0010000F07FFC03240E
:10C3D400204638BD254B002140F603020330C3E953
:10C3E400021258601970224B22495960224945F0C3
:10C3F4000405C3E90212214A1A612149214A5A61FA
:10C40400284600F063FC04F059FB8528044601D05B
:10C414000028DDD1002004F0D1FB04460028D7D148
:10C4240003F00EFB184801F0EFFD04460028CFD1BD
:10C43400164801F0ABFE04460028C9D11449284629
:10C4440000F044FC01F050FE04460028C0D111491C
:10C45400284600F03BFCBBE7747507004C750700E9
:10C4640000010020DC740700C0750700A419002037
:10C474008C190020A9C406009DC4060034190020AC
:10C48400E1750700D4740700607707003C77070064
:10C49400F775070004760700011F014803F08ABC02
:10C4A4007475070037B50D46044618B90A49932038
:10C4B40003F0AEFB1DB90849942003F0A9FB01ABBE
:10C4C4002A462146054804F066FA019A03490448BD
:10C4D40002F0C0FE03B030BD1E7607001B19002019
:10C4E4003C77070001F0FABF083810B506283ED89B
:10C4F400DFE800F0081E2F3D3D3D0400BDE810407C
:10C5040001F00CBE1A4B1B481B49C01AC00800049A
:10C5140040F0030000F0DAFB05F064F908B901F01B
:10C52400FBFD164B1B6813B30120BDE810401847F0
:10C534000F4B10481249C01AC008000440F0030011
:10C5440000F0C4FB01F018FE0C4B1B687BB1022009
:10C55400EBE7074B07480B49C01AC008000440F03A
:10C56400030000F0B3FBBDE8104001F0E7BD10BDCF
:10C57400DC7407004C750700847607000001002076
:10C5840097760700A976070008B503781BB9BDE8BC
:10C59400084001F0A3BF094A042101F029FB58B166
:10C5A400074B08480849C01AC0080004BDE8084001
:10C5B40040F0010000F08ABB08BD00BFE9C40600DA
:10C5C400DC7407004C750700B37607002DE9F047CB
:10C5D40099B1022939D123492348012202F05AFE94
:10C5E400224B2349024623481B1ADB081B04BDE8DF
:10C5F400F04743F0020000F06DBB1C481D4B194F7F
:10C604001D4EDFF88490C01AC008000440F00408EE
:10C6140040F001043978184804F0F1F9824668B909
:10C62400D6E9011248460AF069F9144803F09AFB66
:10C63400054660B91249204600F048FB0A48012229
:10C64400394602F027FE0028E4D0BDE8F087024610
:10C654000C494046033500F03DFBC6E9015A86F813
:10C6640000A0EBE74C1900203C7707004C7507004D
:10C67400D1760700DC740700A41900207475070044
:10C68400F7760700127707008C1900207047000026
:10C6940007B5044B0093044A402300F032F803B07A
:10C6A4005DF804FBB1C60600B51900202DE9F84376
:10C6B40088461446B2B10F4B0F4E0325002743F0B2
:10C6C4000109224608EB070100200AF019FA074481
:10C6D400241A48B933782BB14FF47A40C847013D46
:10C6E40002D13570BDE8F88301233370002CE8D102
:10C6F400F8E700BF70770700B419002070470AF00C
:10C7040033BAF0B595B01D46164608460C4603F0FC
:10C7140066FF1A9B0D93CDE9086500252B46082278
:10C7240005A920460A958DF82C500C9503F07EFF40
:10C73400079B0293069B03939DF814308DF81150C8
:10C7440003F00302012A1DD1BDF81420059DC3F393
:10C75400C203C2F383168DF81030B20008230EA969
:10C76400204603F063FFC5F3952508AB00933246DA
:10C7740002AB0EA9284600F0D9FB204603F033FF94
:10C7840015B0F0BD022AF8D1BDF81650C3F3C203A8
:10C79400C5F389158DF810300827082D2E4628BFBB
:10C7A40008263B4632460EA9204603F03FFFAD1B48
:10C7B40008AB02AA31460EA8374400F01BFC002D3A
:10C7C400EBD1DAE708B5FFF79AFF0748042100F038
:10C7D40019FB002803DA0549412003F019FA044B38
:10C7E40001225A7108BD00BF9C75070084770700B9
:10C7F400200000200378024613F0040006D003F062
:10C804000300012803D0022809D0012070470B68D7
:10C8140012880233C2F3831213440B6070470B680F
:10C824005288023303EB92130B60EEE72DE9F04FCD
:10C83400044685B0861C00200F46154603F090F987
:10C84400434A516839609368424F03F500635B1AA9
:10C854009246A7F10409A7F10808B3421AD30020AD
:10C86400002D71D004F00F039B0143F0050363F323
:10C874000F00DAF80430C3F30A0203321E444AF804
:10C8840022000020CAF8046003F07AF9012005B000
:10C89400BDE8F08F0121384603F001FA484603F061
:10C8A40019FA404603F016FADAF808000090C0F3CB
:10C8B4000A0003300AEB80006946FFF79BFF009BE8
:10C8C4008346C8B9C3F30A020AEB8202D168019114
:10C8D4009A1C0133C3F30A030AEB83030092D8685A
:10C8E40001F00303012B27D0022B08D01A494FF47F
:10C8F400C27003F08DF90CE0C3F30A00D9E7BDF868
:10C904000630C3F3891303334FEA104B02EB93034E
:10C914000093404603F0E1F910B1009BCAF80830D7
:10C924005946384603F0BBF9DAF80830DAF804203F
:10C9340003F500639B1A90E7BDF80430C3F3831337
:10C944004FEA104B1344E3E7A40544F0060090E7D4
:10C95400C81A0020E43A0020F2770700064B074883
:10C9640010B500221A7003F0F3FD044610B9044810
:10C9740003F070FE204610BDC81A00208875070019
:10C984006078070030B50A4C71B10A4A0A49121B93
:10C99400D20800239A4201D1002030BD31F823503F
:10C9A400854202D00133F5E7034654F83300F4E737
:10C9B400DC740700747507001C000020094B013962
:10C9C40003EBC000032909D8DFE801F00A020406DA
:10C9D4000420704700797047407970470020704701
:10C9E40002207047DC740700034BD3E90130C31AFB
:10C9F40058425841704700BFC81A00202DE9FF4132
:10CA0400FFF7F2FF0546002840F0F3807A4C42F22B
:10CA14001803E050BFF34F8FA3680093C3F30A03D6
:10CA24000333764E04EB83006946FFF7E3FE009B75
:10CA340010B13268002A5BD0C3F30A02991C013397
:10CA440004EB8202C3F30A0304EB8303D268DB68BA
:10CA5400029302F00303022B0192009159D1BDF815
:10CA640006306748C3F38917502F3E4628BF502627
:10CA740066F38F1306F10801ADF8063003F080FD6C
:10CA84000546002800F09F8003F0A9FD002301A9BA
:10CA94000822284603F0B6FD0099CB43C3F30A03EA
:10CAA4000133C1F30A010331B6EB830F4FEA830864
:10CAB40004EB81012AD908234246A6EB080628463E
:10CAC40003F0A0FDF6B24F4908F1080332462846A8
:10CAD40003F098FD009B033703EB9707009742F29E
:10CAE4001803E358002B49D142F21003E65858E0EA
:10CAF40062689A4204D8A260284604B0BDE8F08176
:10CB0400C3F30A03033304EB83008DE7082332469F
:10CB1400DDE7012B57D1BDF804303948C3F3831145
:10CB2400062928BF062161F3891302318900ADF873
:10CB3400043003F025FD0546002844D003F04FFDE2
:10CB44000023082201A9284603F05CFD0026BDF855
:10CB54000420C2F38312B300964203F10803BED249
:10CB640000994A1CC1F30A010331009204EB8101CC
:10CB74000422284603F046FD0136E8E7284603F080
:10CB840032FDFFF731FF80F00105EDB2B4E7F36841
:10CB94005B7923B1336829461B6830469847F368AC
:10CBA4001E68002EF3D1284603F01DFD304602F026
:10CBB400D7FF42F21803E3580BB9009BA36000208F
:10CBC40002F0DEFFDDE742F21003E45854B90E4BE5
:10CBD4000E480F49C01AC008000440F0020000F0DB
:10CBE40075F8CEE7236820469B689847E3681C687D
:10CBF400ECE7002580E700BFC81A0020E03A0020D7
:10CC040088750700D41A0020DC740700FC74070040
:10CC1400487807002DE9F34704460F46914601A9D9
:10CC2400012218461E46FFF701FEDFF89C8078B308
:10CC3400019D0023A81CB34203EB000132D11E481E
:10CC4400002102F0F1FF80F3100A1C4B1C4A4FEA4A
:10CC540014499B1AB9EBD30F04D31A4940F2A91013
:10CC640002F0D6FF6B1CC3F30A03E40008EB830352
:10CC740004F0380449EA0A40C5F30A0544F0010403
:10CC8400D860033544EA861343EA872348F82530FD
:10CC940098F800301BB1FFF7B1FE0028FBD102B0B9
:10CCA400BDE8F087C1F30A0108EB810159F823209C
:10CCB400CA600133BFE700BFE43A0020747507007F
:10CCC400DC740700F2770700C81A002000231A4614
:10CCD400FFF7A0BF07B50123019201AAFFF79AFF4E
:10CCE40003B05DF804FB07B5CDE9002302236A46CF
:10CCF400FFF790FF03B05DF804FB1FB5CDE90123F6
:10CD0400069B039301AA0323FFF784FF05B05DF894
:10CD140004FB1FB5CDE90023069B0293079B0393F5
:10CD24006A460423FFF776FF05B05DF804FB7FB580
:10CD3400CDE90123089B0393099B04930A9B059364
:10CD440001AA0523FFF766FF07B05DF804FB0000A6
:10CD54002DE9F7430446D01C8846164601A9002253
:10CD64008008FFF763FD254D98B3019FB81C01901F
:10CD7400C0F30A00C0F50063B6EB830F00F10300B3
:10CD84004FEA830905EB80002CD83246414609F06E
:10CD9400D6FF1B48002102F047FF80F310027B1CE2
:10CDA400C3F30A03C7F30A0705EB8303200C033715
:10CDB40040EA0240E400D86004F0380455F8273013
:10CDC40044F0020444EA865203F47C131A4345F8FF
:10CDD40027202B781BB1FFF711FE0028FBD103B0ED
:10CDE400BDE8F0834A46414609F0A9FFA6EB0902D3
:10CDF40008EB090105F10C00C9E700BFC81A0020BF
:10CE0400E43A002030B5104942F2100203468A5831
:10CE1400002014463CB9DC68207152B942F2100576
:10CE24004B51226030BDE4682579854206D02468E0
:10CE3400F0E7D268116821601360F3E701300A2833
:10CE4400E7D14FF0FF30EDE7C81A002038B5094AA2
:10CE540042F21003D458012313701D4604B938BD9F
:10CE6400E3685D71236820465B689847E3681C6843
:10CE7400F4E700BFC81A002010B5037A052B0C464E
:10CE84000FD0437A23B1084A0849204602F0C8FF6C
:10CE94000749204602F0C4FF2046BDE8104002F0D6
:10CEA400ADBF002AF8D0F3E76C78070066A5070049
:10CEB4008E780700C38873B504460D4633B1144A0F
:10CEC40000921449144A284602F0AAFF217A05293F
:10CED4001CD0637A4BB1A088FFF770FD0F4B10494B
:10CEE40053F82020284602F09BFF227A0D4BA0889D
:10CEF40053F822600021FFF745FD0B4903463246F3
:10CF0400284602B0BDE8704002F08ABF02B070BD8E
:10CF14006C7807007978070071780700FC780700BF
:10CF240066A5070020790700917807002DE9F043F2
:10CF340085B01F460C9D002395F80C902B73064674
:10CF44000C46904629463846FFF7B4FFB8F1060F61
:10CF540009D8DFE808F00412181F283340003146CE
:10CF6400284602F05DFF002229463846FFF784FF79
:10CF740085F80C9005B0BDE8F08322683146284658
:10CF840002F04EFFEFE7D4E900233146284602F0D1
:10CF940047FFE8E7A36800933146D4E90023284615
:10CFA40002F03EFFDFE7E3680193A3680093314694
:10CFB400D4E90023284602F033FFD4E7236902931F
:10CFC400E3680193A36800933146D4E9002328461B
:10CFD40002F026FFC7E76369039323690293E368BA
:10CFE4000193A36800933146D4E90023284602F054
:10CFF40017FFB8E708292DE9F74F80460E46174674
:10D004001C463CD800251B7B257321461046019302
:10D01400FFF750FFDFF884A0DFF884B0AE4231D9C7
:10D0240018F805205946204602F0FAFE0135082D6D
:10D03400F4D11949DFF86CA0DFF86CB0204602F097
:10D04400EFFE4FF000094E4521D918F809507E2D06
:10D0540003D8284609F016FE00B92E252A4659465B
:10D06400204602F0DDFE09F10109B9F1080FEAD109
:10D07400012221463846FFF7FFFE019B237303B0CC
:10D08400BDE8F08F5146204602F0CAFECEE7514675
:10D09400204602F0C5FEE6E7A5780700A178070060
:10D0A4009B780700A3780700A77807000268530954
:10D0B40010B5044618D0012B40F2FF3318BF0023EB
:10D0C40002F01F02D340DB0704D409494FF4F67081
:10D0D40002F09EFD23681F2B83BF03F01F03054846
:10D0E40023604FF0A04010BD4FF0FF33E8E700BFCE
:10D0F4003479070000030050032813B5044603D90C
:10D104000849412002F084FD074B01A81B5D0193EF
:10D11400FFF7CCFF019A01239340C0F80C3502B00D
:10D1240010BD00BF5F790700A4790700032813B579
:10D13400044603D90849472002F06AFD074B01A8B9
:10D144001B5D0193FFF7B2FF019A01239340C0F8DE
:10D15400083502B010BD00BF5F790700A47907004D
:10D1640008B50020FFF7E2FF0120FFF7DFFF0220F0
:10D17400FFF7DCFFBDE808400320FFF7D7BF00003E
:10D18400F7B5C207044612D5134E0025032716F837
:10D19400013B019301A8FFF789FF019B013503F5CA
:10D1A400E073042D40F82370F1D1FFF7D9FFA307F2
:10D1B40010D50A4D00240C2615F8013B019301A853
:10D1C400FFF774FF019B013403F5E073042C40F86E
:10D1D4002360F1D103B0F0BDA4790700A079070062
:10D1E40043689B68184708B5436808305A7905F0C6
:10D1F400B5FA002008BD2DE9F0430C469BB0084663
:10D2040098461746FFF7ECFFD4F8049099F80550B8
:10D21400454528BF454606462A46394602A805F034
:10D2240081FA99F8052022990AA805F097FA009640
:10D234000AAB2A4602A904F1080006F0C5F9002841
:10D2440048F2425018BF00201BB0BDE8F083002311
:10D25400C0E902328B881A44B1F9063002611A44DB
:10D26400C0E9001142610888003818BF01207047E6
:10D274004268118838B50346002937D0148A02F170
:10D28400100141602CB9C2680168FFF7E0FF204635
:10D2940038BD9078118900F03005302D14D1947C7C
:10D2A40004F03004302C1BD190881969091A1961D3
:10D2B4000021908AB2F916200844196901441961C1
:10D2C400114459610120E3E700F0F004202C07D158
:10D2D40050894143002DECD1986801309860E8E70B
:10D2E40000F0C000802808BF0421F3E70846CFE718
:10D2F40070B5466804460D4663681A88AA4204D18C
:10D304009B7803F00F03082B07D12046FFF7B0FFEB
:10D314006368B342F0D1002070BD0120FCE743688C
:10D324001A44426011B101399A4201D10120704777
:10D3340013F8010B01F8010FF6E783682DE9F341B7
:10D344000446884623B90026304602B0BDE8F08181
:10D35400036801220DF10701984706460028F2D020
:10D36400A3689DF80750013BA3609DF90730002B8B
:10D374001ADA05F07F050727A368002BE3D023689A
:10D3840001220DF10701204698470028DBD0A3684D
:10D394009DF80720013BA36002F07F03BB401D43BF
:10D3A400130607F1070702D4C8F80050CCE7232F6F
:10D3B400E2D1C8E770B54568AA7802F00F06082ED6
:10D3C40086B003461FD103691C6800260CB906B059
:10D3D40070BD236862689D68267329466846FFF716
:10D3E40036FF6368049304F10C030593AB7803F0F0
:10D3F400C003802B08BF231D684608BF0493FFF7B2
:10D40400D9FFA468E2E712F0C0011CD102F0300099
:10D4140010280AD15A691170072EEC68186909D1CD
:10D424000146204600F017F8D1E79006F4D55B6971
:10D434001980CCE72A89214614B109F080FCC6E79B
:10D4440009F0A6FCC3E78029C1D100690021920636
:10D454000160BCD5EBE77FB50A4601466846FFF795
:10D46400F6FE30B16846FFF7A5FF6846FFF700FFF8
:10D47400F7E707B05DF804FB30B5044685B0154600
:10D48400A9B90268114B9A4211D0102D06D82A4628
:10D4940069462046FFF7F0FF05B030BD102269460B
:10D4A4002046FFF7E9FF0028F6D0103DEDE7A3681A
:10D4B400AB4201D20020EFE723682A462046984772
:10D4C4000028F7D0A268521BA260E5E723D3060028
:10D4D400F7B50E4601A907461546FFF72EFFA8B17A
:10D4E400019A0123D3184FF0000404D2B17801F05B
:10D4F400C001802901D1204608E031899942FAD33C
:10D5040029463846FFF7B8FF019BEC5403B0F0BD41
:10D5140073B50D4601A906461446FFF70EFF98B1F0
:10D52400019AB2F5803F11D2AB7803F0C003802B8F
:10D5340002F102010AD02B898B4207D321463046DF
:10D5440021F8022BFFF798FF02B070BD0020FBE723
:10D5540010B5034C82600022C0E90041C26010BDD6
:10D5640023D306002DE9F341002604460F46B046B6
:10D574003546A3682BB3236801220DF10701204629
:10D584009847F0B1A3689DF807C0013B0CF07F02F7
:10D59400C5F12001A360A5F1200302FA03F322FAE6
:10D5A40001F10B43AA401CF0800F46EA020643EA4D
:10D5B400080805F1070502D1C7E9006802E0462D15
:10D5C400D7D1002002B0BDE8F08173B50C4669469E
:10D5D4001646FFF7C7FF68B12389082B0CD1DDE994
:10D5E4000045C6E90045DDE90023AB4206BFA2427F
:10D5F4000120002002B070BD042B04D1009B3360D5
:10D604001C460025EFE7022B4FF0000004D1009BDD
:10D6140033809CB20546E6E7012BEBD1009B3370C7
:10D6240003F0FF04F6E737B50D4669461446FFF7E5
:10D6340099FF30B12A89082ADDE9003103D1C4E910
:10D64400003103B030BD042A18464FEAE37108D113
:10D6540023601A460B468B4206BF824201200020FB
:10D66400EFE7022A04D11BB223801AB2D317F2E7E0
:10D67400012A03D15BB223705AB2F7E70020E0E736
:10D68400F7B51F4600233B700D460B70136001A9CC
:10D6940004461646FFF751FE30B9A36813B90123B7
:10D6A4003B70002003B0F0BD019C002CF7D0E308D0
:10D6B40004F0070433602C70F4E713B5044605291D
:10D6C4001FD8DFE801F0030F151E1E1C012201A95B
:10D6D4002046FFF7D1FE18B19DF90430002BF5DB8D
:10D6E40002B010BD082200212046FFF7C5FEF7E76F
:10D6F40001A9FFF722FE0028F2D0019AF3E70422E1
:10D70400F1E70020ECE773B50D4601A90446FFF7E5
:10D7140014FE064618B90026304602B070BD94E8DF
:10D724000F0085E80F0001998A42F4D3A960A36829
:10D734005B1AA360F0E700002DE9F0435668B37864
:10D7440013F0C00489B007468C46154603D0402C1C
:10D7540067D000240CE003F00F025D4903F03003AE
:10D76400202B51F8228023D006D8E3B1102B17D0F8
:10D77400204609B0BDE8F083302BF9D16B693188BC
:10D784001980072A09D121463289286909F000FB4A
:10D794006B682969D868FFF75EFE2A6969683EE00C
:10D7A4006B6901221A702A693146C0470446DFE7D3
:10D7B400BCF1020FD5F8149024D1042A22D804A96C
:10D7C400FFF7A1FF04460028C3D0069B2BB169686C
:10D7D400B9F800304A899A4205D8059B7B60069BBC
:10D7E400002BC5D0B5E708892A6903FB002204A8E9
:10D7F400C04728B1B9F800300133A9F80030E4E794
:10D804000446EAE7B9F8003072899A42A1D931890D
:10D814002A69581C03FB0122A9F800003146384646
:10D82400C3E7D2F81080464656F8043B13B9FFF715
:10D8340044FFBBE7022914D104A9FFF764FF0028C1
:10D8440087D0D8F800306968324604A8984704465F
:10D8540000283FF47EAF069B002BF2D1059B7B6032
:10D8640086E7012925D005292BD000297FF471AF43
:10D874000C460DF1040901340B2C3FF46AAF01226C
:10D8840049463846FFF7F8FD00283FF462AF19F91E
:10D89400013B002BEFDB0F4B049301ABCDE90534C7
:10D8A400002307936968D8F80030324604A89847E3
:10D8B4007CE7082201A9FFF7DFFD08240028EAD14C
:10D8C40047E704220DEB0201FFF7D6FD0424F5E738
:10D8D400B479070023D306002DE9F04F91B0044634
:10D8E400002604A8CDE90266FFF7B1FCA3683BBBA0
:10D8F400DDE9053404A89D78FFF7BAFC0028F7D1C8
:10D9040015F0300F03D1059B1B8803B10134002CA3
:10D9140000F0A9806309002202A9934240F09C8090
:10D9240010AA02EB830304F01F0453F8383CC4F13B
:10D9340020044FF0FF30E040C31A584258410DE034
:10D944000DF1030301AA0DF102012046FFF798FE31
:10D9540038B99DF80330002BCAD1002011B0BDE8BE
:10D96400F08F019904A8FFF7C3FC002850D1019B54
:10D97400B3427DD3059D059A937803F00F03082BDA
:10D984007FD004A8FFF774FC059B9D42F3D14FF0B0
:10D99400FF36019FB7426BD3089B9DF80290D4F8E1
:10D9A40008801D684FF0010AA368002D5DD09845DA
:10D9B4009CD12B68D3F800B0BBF1000F08D04B46C4
:10D9C4003A4629462046D8470028C6D0AD68EBE73A
:10D9D400D3F808B0BBF800309F42F7D16A685946C3
:10D9E4000AA8FFF734FC6B680E9305F10C030F9340
:10D9F4009BF8023003F0C003802B04BF2B1D0E9351
:10DA04000AAA85F80CA049462046FFF795FEDBE7F5
:10DA1400059B9B7813F0300F0FD1069A3F2A0CD840
:10DA2400510910AB03EB810102F01F020123934063
:10DA340051F8382C134341F8383CE5682DB19DF872
:10DA44000220019904AB2046A8479DF8021004AABD
:10DA54002046FFF771FE10E051F8225001357FF4A3
:10DA64007DAF013259E7012078E798457FF43EAF56
:10DA74009DF802102046FFF720FE00287FF436AF01
:10DA84006BE7168885E770B50C46064615461146C1
:10DA94002046FFF7E0FC2A4621463046BDE87040A8
:10DAA400FFF71ABFF0B585B0CF680C466946054646
:10DAB4001646FFF728FE68B1E06858B1A37803F072
:10DAC4003003202B32463946684605D1FFF7DBFF89
:10DAD400019B6B6005B0F0BDFFF7FEFEF8E7D3B520
:10DAE4000C466946FFF73EFD80B1DDE900130027CF
:10DAF4004A0801F0010642EAC37256EA07014FEAF6
:10DB040053031CBFD243DB43C4E9002302B0D0BD9E
:10DB140037B50D4669461446FFF7E1FF68B12B8916
:10DB2400082B0CD1DDE90001C4E90001DDE9002383
:10DB34008B4206BF82420120002003B030BD042B7B
:10DB440003D100982060C117F0E7022B04D1BDF97E
:10DB54000000208000B2F6E7012B04D19DF90000FB
:10DB6400207040B2EFE70020E7E713B504220C462B
:10DB74000DEB0201FFF780FC08B1019B236002B0AA
:10DB840010BD1146FFF7F1BF13B508220C466946D4
:10DB9400FFF772FC18B1DDE90023C4E9002302B0E9
:10DBA40010BD1146FFF7F0BF4B1C30B5DB00044637
:10DBB40012F003009BB20DD1074D2A601A44074BA3
:10DBC4001A60074B1870074B1870074B1C80074BE3
:10DBD400198030BD0720FCE7883B0020843B0020EF
:10DBE400803B0020903B00208C3B00208E3B00209B
:10DBF4002DE9F047274F3B888B4206460D46904659
:10DC040044D3002001F0ACFF234B24481978244B63
:10DC140000881C78E2B2844238BF0132C9B234BFF2
:10DC2400D2B2002291422BD01C781A78D1B2904201
:10DC340086BF0131C9B200211970002001F0A0FF94
:10DC44004FF6FF739C4223D0DFF85C90D9F8002094
:10DC54004FEAC40A42F8348002EBC4039EB195B182
:10DC6400104B38881B682A4604FB0030314609F003
:10DC740066F8D9F80030534400209D80BDE8F08751
:10DC84004FF6FF74D9E700209880F7E70920F5E7FD
:10DC94000420F3E78C3B0020903B00208E3B0020C7
:10DCA400803B0020843B0020883B0020F8B5114CC9
:10DCB400114D264622782B789A4200D1F8BD0F48A0
:10DCC4000F4A2378126807880E4802EBC3010068E4
:10DCD40052F83320898803FB070090470A492278C9
:10DCE4000988D3B2914286BF0133DBB2002333707B
:10DCF400E0E700BF903B0020803B00208C3B0020ED
:10DD0400883B0020843B00208E3B0020024B5B6854
:10DD140003B11847704700BF943B0020024B0146F3
:10DD2400D3E90002104700BFE83B00200378052B2D
:10DD34000CD1084AD2F88434D2F8802412F0FF0FB0
:10DD440004D1054ADBB2052B08BF1046034B1B6800
:10DD5400184700BF00700240E47A0700943B00209B
:10DD6400FFF7E4BF38B50D46044620B9064940F232
:10DD7400431001F04DFF6378AB4283BFA078401994
:10DD84000019002038BD00BFD879070038B50D460A
:10DD9400044620B907494FF4887001F039FF237A0B
:10DDA400AB4283BF04F1090005EB4505401900208F
:10DDB40038BD00BFD879070070B50D46044620B9B8
:10DDC4000D4940F20F1001F023FF636823B90A499B
:10DDD4004FF4887001F01CFF63681B6823B906497F
:10DDE40040F2111001F014FF6368294620461B68B5
:10DDF400BDE87040184700BF2E7A070008B520B16F
:10DE0400044940F27B2001F003FFBDE808400248CA
:10DE1400FFF78CBF2E7A0700E87A070010B5044696
:10DE240020B9044940F2432001F0F2FE2368186847
:10DE340010BD00BF797A070000F00F0310F0800FC7
:10DE440010B51C460AD0082B04D909494FF4CC70EC
:10DE540001F0DEFE074800EBC40010BD082B04D916
:10DE640003494FF4CF7001F0D3FE0348F3E700BF3A
:10DE74002E7A0700A03B0020E83B002070B50D4639
:10DE84000646FFF7D9FF044605604DB9730604D171
:10DE940005494FF4E17001F0BBFE0023636070BDDF
:10DEA4006B681B68FAE700BF2E7A0700012805D0CB
:10DEB400022805D030B90648FFF738BF0548FBE70C
:10DEC4000548F9E7054940F2622001F0A1BE00BF10
:10DED400D87A0700DC7A0700E07A07002E7A070078
:10DEE40038B5831EDBB2062B98BF1A4A1A4D98BF69
:10DEF400D25C2B78A3F10203DBB288BF0022062B8D
:10DF04009ABF1449CB5C00239342044603D0B2B1B8
:10DF1400124802F0F3FD022C14D0A4F1080042428E
:10DF240042412B78022B0FD0A3F108014B424B4105
:10DF3400934202D052B103F093FC2C7038BD02F02E
:10DF440019FEE8E70122ECE70123F1E703F07EFC88
:10DF5400F3E700BFCD7A0700393C002028000020F9
:10DF64002DE9F04F87B000260546884691461F46A6
:10DF740002966B6800225C682946012302A8A04728
:10DF8400044638B98DF8060004908246564503D8F5
:10DF9400052028E00136ECE76B680DF10602D3F8A2
:10DFA40004B02946012304A8D8476B680DF1070281
:10DFB400D3F804B02946012304A8D8479DF80730B4
:10DFC40043459DF8063013D14C450FD1109A136088
:10DFD4003B7087F801806A68023B54682946BA1C82
:10DFE40004A8A047002007B0BDE8F08F0134E4B2D4
:10DFF4006A68023BD2F804B02946002204A8D84734
:10E004009DF806309A44C1E7F7B5054602F050FD85
:10E0140020B92B4940F2313001F0FAFD294803F0D0
:10E024005FFC044690BB284B1870284B1860284BA3
:10E03400014618604822274808F0AAFE26484822CC
:10E04400214608F0A5FE254B1DBB254A1D72C3E9D8
:10E054000025002002F0B2FD18B1852801D004F09B
:10E06400F5FB204F002529463846FFF78FFE013582
:10E07400EDB2044610BB0B231A488DF8043001A9F5
:10E08400FFF79AFE044608B103F0E4FA204603B011
:10E09400F0BD95E8070083E807000028D9D1104AAD
:10E0A4001A60D6E700783946FFF7E8FEF1B2204659
:10E0B400FFF758FE01360028F4D1D4E70026F5E72F
:10E0C4002E7A070065DD0600393C0020303C002034
:10E0D400343C0020A03B0020E83B0020943B00207F
:10E0E400E1E406000C7C070010B503F073FB10B9E3
:10E0F4000823184610BD03F075FB04460028F7D129
:10E10400044802F076FD03460028F2D004F09EFB9A
:10E114002346EEE7D47A070003F0B2BA08B503F059
:10E124006BFB20B1044940F2D13001F071FDBDE830
:10E13400084004F001B900BF2E7A070008B503F0C7
:10E1440051FB20B90A494FF4767001F061FD4FF09C
:10E154008043D3F83824920704D5BDE80840054825
:10E16400FFF7E4BDD3F83824D107F2D408BD00BFCB
:10E174002E7A0700E97A070007B5822301A88DF8F3
:10E184000430FFF7D3FD03B05DF804FBF7B5044694
:10E1940020B9384940F26A5001F03AFD636823B966
:10E1A400344940F26B5001F033FD63681B6823B9B6
:10E1B400304940F26C5001F02BFD23681B6823B1F9
:10E1C4002C4940F26D5001F023FD03F00BFB30B1FC
:10E1D400284940F2715001F01BFD002613E003F0C2
:10E1E400F9FA0028F9D1F3E70078FFF725FE036870
:10E1F400013713B1112023E00027F9B22846FFF7B5
:10E20400B1FD0028F0D131462046FFF7BFFD0136AD
:10E21400F6B205460028EFD129462046FFF7B6FDA1
:10E224000135EDB20646C8B9134D124E2B68BBB981
:10E234002C600B2301A920468DF80430FFF7BCFDA8
:10E2440003B0F0BD00782146FFF718FEF9B230465E
:10E25400FFF788FD01370028F4D1DDE70027F5E753
:10E26400A34204D1314640F2975001F0D1FC2B680F
:10E274001D68DBE72E7A0700303C0020024B18783B
:10E28400003818BF01207047383C0020030710B540
:10E29400044604D403F014FE204604F021F9204679
:10E2A400BDE8104004F0C8B804F090B8014B1868F9
:10E2B400704700BF303C00202DE9F8430F4B1C6829
:10E2C40006460D46BCB194F808904FF000085FFA7A
:10E2D40088F7B94504D82046FFF7A0FD0446F1E7C6
:10E2E40039462046FFF752FD0378B34208F101088E
:10E2F400EDD105B12F702046BDE8F883303C0020F5
:10E304001146FFF759BD00F00F03082B10B50C465A
:10E3140008D8FFF791FD006820B12146BDE8104000
:10E32400FFF74ABD102010BD38B5074B1C680546E1
:10E3340004B938BD29462046FFF73EFD2046FFF7C5
:10E344006DFD0446F4E700BF303C002038B5084BAF
:10E354001C6805460CB9062038BD29462046FFF73F
:10E364002BFD0628F8D12046FFF758FD0446F1E7B7
:10E37400303C002038B504460D4603F0FCFA48B1A1
:10E38400054B1B78022B05D129462046BDE83840B1
:10E3940003F0FEBA082038BD393C002038B50446E5
:10E3A4000D4603F0E8FA48B1054B1B78022B05D162
:10E3B40029462046BDE8384003F072BB082038BD2A
:10E3C400393C002043689B6870B505460E461446E8
:10E3D4009BB92B7AB34204D20F4940F2F92001F0E1
:10E3E40017FCB4B931462846FFF7D0FC46780546F9
:10E3F400E1B2B14205D3002002E098470628E8D0F4
:10E4040070BD2846FFF7AEFC0078FFF73FFF0134EC
:10E41400EEE70720F4E700BF2E7A07004368DB68C5
:10E4240070B504460D4603B19847237AAB4204D233
:10E434000B494FF4467001F0EBFB29462046FFF7E9
:10E44400A5FC467804460025E9B28E4200D870BD8A
:10E454002046FFF787FC007803F0B8FF0135F3E7A7
:10E464002E7A070043681B6903B1184718467047A2
:10E47400F8B50D4B0D4E1C6804B9F8BD277A00257C
:10E48400E9B28F4204D82046FFF7C8FC0446F3E7FC
:10E4940000222046FFF796FF20B1314640F26A7011
:10E4A40001F0B6FB0135EBE7303C00202E7A070083
:10E4B400094B70B51C6804B970BD267A0025E9B211
:10E4C4008E42204603D8FFF7A9FC0446F3E7FFF782
:10E4D400A5FF0135F3E700BF303C002038B5974B6A
:10E4E4001B68044623B9964940F2254001F090FB8D
:10E4F40001F056FB052804D8914940F22C4001F064
:10E5040087FB23780F2B13D9A3F1800283F08003B8
:10E51400052B06D9BDE83840894940F2265001F060
:10E5240077BB052AF6D8DFE802F06429467079D86B
:10E534000F2BEFD801A252F823F000BF3FE60600EC
:10E544006DE60600CDE6060091E60600AFE606009D
:10E55400DFE60600F1E6060019E5060033E70600EB
:10E5640037E706003BE7060019E5060019E5060053
:10E5740019E5060019E50600E9E606007148FFF70B
:10E58400CDFB7048FFF7D0FE0D20FFF7BFFBFFF770
:10E594008FFF00F08EFF6C4B1B6853B96B4B187ADE
:10E5A40000F0010003F0E4F80120BDE83840FFF773
:10E5B40097BC0120F4E7FFF77BFF03F08FFE0020F8
:10E5C400FFF78EFC6248FFF7AFFE6148FFF7A6FB3A
:10E5D4000E20FFF79BFB5F4B1B78023BDBB2062B45
:10E5E4003AD85D4AD35C002B36D0BDE8384002F0FF
:10E5F400C1BA584B1B78062B05D003F0FD03052B3D
:10E604002AD10220D1E70820CFE7524B1B78032BF5
:10E6140022D103F0B5FEF8B10420C6E74D4B1B78B8
:10E62400032B05D103F0ACFE10B10420FFF758FC16
:10E6340003F0F0F880B10620B7E7464B1B78032BB4
:10E6440001D0082B02D14548FFF748FF0020FFF70F
:10E654005DFB3D4B1D6805B938BD28462146FFF7D3
:10E66400ABFB2B685D68F6E7FFF722FF00F018FFAD
:10E674000220FFF735FC0120FFF748FB2046FFF797
:10E684004DFB2046BDE83840FFF74EBE314B1B78AA
:10E69400082B06D10220FFF723FC03F0EBF803203C
:10E6A400EAE70520FFF71CFCF9E70320FFF72EFB40
:10E6B4002B48FFF733FB2A48FFF736FE254B1B7820
:10E6C400062B9ED1072070E70320FFF709FC0220E8
:10E6D400FFF71CFB2046FFF727FE2046BDE8384025
:10E6E400FFF71CBB0F20FFF711FBCAE7A078FFF769
:10E6F400A3FB0368054623B9114940F2025001F017
:10E7040087FA6B6823B90E4940F2035001F080FA8E
:10E714006B6828682146984700289DD0A078020796
:10E724009AD0030798D4BDE8384003F08BBB082087
:10E73400D9E70920D7E70A20D5E700BF303C0020FD
:10E744002E7A0700EA7A0700343C0020943B00202C
:10E75400EB7A0700393C0020CD7A0700EC7A0700F9
:10E76400ED7A0700CA699A4210B543600CD38C69EC
:10E774000460086F18440867D01A1C44C861003844
:10E784008C6118BF012010BD01F1280202608B6763
:10E794000020F8E738B50D46044620B907494FF480
:10E7A400887001F035FA237AAB4283BF04F1090083
:10E7B40005EB45054019002038BD00BFEE7A07007F
:10E7C40038B50D46044620B9064940F2431001F01D
:10E7D4001FFA6378AB4283BFA07840190019002068
:10E7E40038BD00BFEE7A070008B50121FFF7D2FF5C
:10E7F4000121FFF7E5FF007808BD00002DE9F8438B
:10E8040017468E4A99460B7A13700E460546904673
:10E8140020B98B494FF4447001F0FAF92B68002BAE
:10E8240000F08780A3F213337C2B00F23C837C2B13
:10E8340000F23983DFE813F088009300A100AD00F3
:10E84400B900C500D100DD003703370337033703B0
:10E8540037033703F500080137033703370337035A
:10E864001B012701350137033703370348015401DE
:10E87400820137033703370337036A0176018201C4
:10E884003703370337033703370337039401370359
:10E89400370337033703A801B401C001CC01D90100
:10E8A40037033703E501F101FD01090215023703BE
:10E8B400370321022D023902450237033703580278
:10E8C400640270027C02880237033703370337037C
:10E8D4003703370337033703370337033703370364
:10E8E4003703370337033703370337033703B002DC
:10E8F400BC02370337033703CE023703370337032A
:10E904003703EB023703370337033703EB023703CD
:10E9140037033703370337033703FD02090337038C
:10E924003703370337032703370337033703370323
:10E93400270308232B71B9F1000F05D140F21333DB
:10E944002B600120BDE8F8830FB12B793B700B23BA
:10E95400B9F1010F2B710ED84FF44573F0E7002481
:10E964000FB12B793B550134337D2B714C4505D3C5
:10E9740040F21533E4E70124F2E700240FB12B79C8
:10E984003B55013402234C452B7103D340F216331B
:10E99400D6E700240FB12B793B55013402234C45B3
:10E9A4002B7103D340F21733CAE700240FB12B793C
:10E9B4003B55013402234C452B7103D34FF446736A
:10E9C400BEE700240FB12B793B550134737E2B71C4
:10E9D4004C4503D340F21933B2E700240FB12B792D
:10E9E4003B55013400234C452B7103D340F21A33B9
:10E9F400A6E700240FB12B793B55124B00220134BA
:10EA04001A70104B1A7898F800309A4202D340F2E8
:10EA14009A3395E70923A1452B7103D840F221339A
:10EA24008EE700240FB12B793B55013404234C4568
:10EA34002B710AD340F2223382E700BF3C3C002012
:10EA44002D7B07003B3C002000240FB12B793B5564
:10EA5400A24B30461978FFF79DFEA14B0134186094
:10EA64004C4503782B7103D340F2273368E7002425
:10EA74000FB12B793B55013400234C452B7103D343
:10EA84004FF44A735CE700240FB12B793B55944B48
:10EA94001B6801345B782B714C4503D340F2293356
:10EAA4004EE700240FB12B793B558D4B327D1B680B
:10EAB4001B789A4204F101041ED102234C452B71A8
:10EAC40003D340F22D333BE700240FB12B793B55A0
:10EAD400013402234C452B7103D340F22E332FE72C
:10EAE40000240FB12B793B550134737E2B714C45B7
:10EAF40025D340F22F3323E7B27D9A422AD10A2349
:10EB04004C452B7103D34FF44D7319E700240FB117
:10EB14002B793B55013400234C452B7103D340F230
:10EB240035330DE700240FB12B793B550134002315
:10EB34004C452B7103D340F2363301E700240FB167
:10EB44002B793B5501340023A1452B7109D840F2A0
:10EB54003D33F5E6634940F23A3001F059F8F2E703
:10EB640000240FB12B793B555D4B327D1B681B781C
:10EB74009A4204F1010440F0FF8005234C452B71B7
:10EB840003D340F24233DBE600240FB12B793B552B
:10EB9400013424234C452B7103D340F24333CFE695
:10EBA40000240FB12B793B55013400234C452B71C4
:10EBB40003D34FF45173C3E600240FB12B793B55B3
:10EBC400013410234C452B7103D340F24533B7E68F
:10EBD40000240FB12B793B55013401204C45287199
:10EBE40004D340F246332B60ACE600240FB12B79FA
:10EBF4003B55013405234C452B7103D340F2493373
:10EC04009EE600240FB12B793B55013424234C4557
:10EC14002B7103D340F24A3392E600240FB12B79CF
:10EC24003B55013401204C45287103D340F24B334A
:10EC3400D9E700240FB12B793B55013403234C450C
:10EC44002B7103D34FF453737AE600240FB12B795D
:10EC54003B550134B37D2B714C4503D340F24D3306
:10EC64006EE600240FB12B793B55013404234C4547
:10EC74002B7103D34FF4547362E600240FB12B7944
:10EC84003B55013424234C452B7103D340F25133BB
:10EC940056E600240FB12B793B55013402234C4531
:10ECA4002B7103D340F252334AE600240FB12B797F
:10ECB4003B55013402234C452B7103D340F25333AB
:10ECC4003EE600240FB12B793B55013405234C4516
:10ECD4002B710AD340F2563332E600BF3B3C00208E
:10ECE400403C00202D7B070000240FB12B793B55BD
:10ECF400013424234C452B7103D340F257331FE6D0
:10ED040000240FB12B793B55013406234C452B715C
:10ED140003D34FF4567313E600240FB12B793B55FC
:10ED24000134337D2B714C4503D340F2593307E64C
:10ED340000240FB12B793B550134B37D2B714C4525
:10ED440003D340F25A33FBE500240FB12B793B5532
:10ED54000134564B1B685A78554B1A70554B002298
:10ED64001A70544B1A78524B1B789A420DD3524A5C
:10ED740013780133137044E6B27D9A42E9D04F49C7
:10ED840040F2633000F044FFE3E70723A1452B7111
:10ED940003D840F26E33D3E500240FB12B793B55F1
:10EDA400013405234C452B7103D340F26F33C7E57F
:10EDB40000240FB12B793B553E4B19783B4B186817
:10EDC400FFF7FEFC013403782B714C4503D340F26A
:10EDD4007333B5E500240FB12B793B55334B327DAA
:10EDE4001B681B789A4204F1010406D103234C45A5
:10EDF4002B710DD34FF45E73A2E5B27D9A4212D10A
:10EE040002234C452B7103D340F27D3398E5002453
:10EE14000FB12B793B5501344023A1452B7109D8FF
:10EE24004FF461738CE5254940F2813000F0F0FE27
:10EE3400F2E700240FB12B793B55013400234C45F4
:10EE44002B7103D340F285337AE500240FB12B797B
:10EE54003B55164B327D1B681B789A4204F1010422
:10EE640007D1336A4C451B782B710DD340F28A339A
:10EE740066E5B27D9A4210D100234C452B7103D331
:10EE840040F28F335CE500240FB12B793B550134FC
:10EE9400084A13780133137063E7084940F293304A
:10EEA40000F0B6FEF4E7002028604BE5403C00206B
:10EEB4003A3C00203D3C00203B3C00202D7B0700D9
:10EEC40010B5044618B906495F2000F0A1FE236876
:10EED4001BB90349602000F09BFE20680C3010BD74
:10EEE4002D7B07000149522000F092BE2D7B0700C4
:10EEF40070B50D46044608B9FFF7F4FFE36923B182
:10EF040029462046BDE87040184770BD10B5044638
:10EF140008B9FFF7E7FF2046FFF7D2FF0023C0E957
:10EF24001B33C0E91D3383828361036200F128032C
:10EF3400836610BD2DE9F0430E4689B0054620B91D
:10EF4400AA4940F2DD2000F063FE26B9A74940F249
:10EF5400DE2000F05DFE33780E2B20D8DFE813F0BE
:10EF640074006201740074001F000F00C1001F00D0
:10EF74001F005E011F00740074007400740025B942
:10EF84009A494FF4E47000F043FE7278D1094FEAD5
:10EF940052133DD013F0030306D0012B28D00624CE
:10EFA400204609B0BDE8F08302F01F02012AF6D121
:10EFB400B478062CF3D105A8039300F039FD03AB14
:10EFC4000093F2783179034607462846FEF7C8FFD6
:10EFD4000528E5D0039B3F2B03D98449C92000F0C1
:10EFE40017FE039A3946701C00F07EFA0446D7E7F0
:10EFF4000DB9FFF777FF2846FFF762FFB378212B9F
:10F00400CDD1B6F80720072AC9D100F10C01EAE7EF
:10F01400012BC4D10DB9FFF765FF2846FFF750FF58
:10F02400B378202B074611D0222BB8D1B6F807307D
:10F03400002BB4D1027DB6F80330838202F00102C2
:10F0440003F001018A422AD10024A9E7B6F8073067
:10F05400072BA4D10DB9FFF745FF2846FFF730FF72
:10F06400B3780370B6F80730DBB243700024023083
:10F07400CDE905032046079400F072FD204605A95A
:10F08400FFF778F9044630B9594B03A9CDE90335A4
:10F0940000F018FA0446002000F072FD80E78CB2FC
:10F0A400C1F10301C9B22846FFF722FF002CCBD1DE
:10F0B40001212846FFF76EFB2146FFF781FB00780C
:10F0C40003F064F82846FFF78FFB03F05FF807F1BD
:10F0D4002803C7E91B44C7E91D44BC613C62BB6605
:10F0E4005EE700212846FFF755FB0021FFF768FB88
:10F0F400B37802789A42A7D01B06F47809D51CB1DC
:10F10400032CA1D003244BE701212846FFF7F0FE8E
:10F1140046E704F0FD03012B96D0002CF2D10DB983
:10F12400FFF7E0FE2846FFF7CBFE06462846FFF72A
:10F134005BFB304BF469CDE905368046ACB9336FDF
:10F14400F466C6E91C43336A63B1D6E9080106F1E3
:10F15400180383E80300346205A94046FFF71EF94B
:10F16400044600E0B4610021CFE7D6F87890B06996
:10F174004C4528BF4C4606F128072246394607F07D
:10F18400DEFD336F23447367A9EB0403F366336A2C
:10F1940000223C443267B466002B3CD006F12009BF
:10F1A40099E8030006F1180787E803001446326261
:10F1B400F36EB0695BB3F269B16E9A421CD807F082
:10F1C400BEFDF369F26E7367D21AF266B26E1A4428
:10F1D400B26600212846FFF78BFE336ADBB199E85B
:10F1E400030087E803003462E2E700BF2D7B0700D9
:10F1F40031F2060069E706001A4607F0A0FDF26E38
:10F20400F36932679B1AF361B3691344B361B36959
:10F21400002BA1D100E0B3610024A4E70321284618
:10F22400FFF766FE2846FFF771FE0DE710B50446AA
:10F2340060B90846FFF744FE0378202B08D1811CEF
:10F2440007220C3007F07BFD204610BD0320FCE7AD
:10F254000620FAE77FB5144606460D46FFF730FE52
:10F26400838ADA0713D501213046FFF793FA002188
:10F27400FFF7A6FAA30600780CBF0123002301A917
:10F28400CDE901540393FFF775F804B070BD08206D
:10F29400FBE700002DE9F341804616460F4621B9ED
:10F2A400284940F2D73000F0B3FC4046FFF708FE8F
:10F2B400838ADB07044643D5002000F051FCA5698E
:10F2C400002D35D1E36EB34212D3A16E32463846D7
:10F2D40007F035FDE36E66679B1BE366A36E33445C
:10F2E400A366002000F04CFC284602B0BDE8F08183
:10F2F400C4E906764046FFF777FA134BE26ECDE990
:10F304000034064662B1A16EA06907F018FDE36EF1
:10F31400E269D21AE261A269C4E91B531A44A261E8
:10F3240069463046FFF73AF8051E08BF9225D8E72C
:10F33400236A1BB9C4E908769225D2E71125D0E7E0
:10F344000825D1E72D7B070069E7060000207047F8
:10F3540010B5044620B9044940F2432000F058FC9B
:10F364002368186810BD00BF797A07002DE9F04FB3
:10F374004B6885B007460C4691465BB90868FFF7B1
:10F38400E7FF38B9A5682DB9C7E90055284605B087
:10F39400BDE8F08FB9F1400F04D9344940F2971019
:10F3A40000F036FC02F0C6FBE36800904B4528BF32
:10F3B4004B4698464FF0000A04F1100356460125C7
:10F3C4000193B8F1000F2DD0A368616843459B46B3
:10F3D40028BFC34651B3009B5A46981907F0AFFCA7
:10F3E40000236360A368E268A3EB0B03A2EB0B02A8
:10F3F400A360E260A8EB0B085E4433B9BAF1000FD6
:10F4040003D02068FFF7A4FF2060E368002B2BD013
:10F41400A368002BD5D12268B2B9626016B1B14598
:10F4240088BF0025009BC7E90036AFE7002BD9D081
:10F434002168009A4B680198D3F804A032445B46D3
:10F44400D0474FF0010ACDE7029321684B680022B0
:10F45400D3F804B002A80123D84708B92061B0E763
:10F46400A3680133A360F0E71D46AAE7AC7B07005D
:10F47400084B1A7882420CD0052818BF064A187027
:10F4840018BF137805481CBF23F002031370FFF75D
:10F4940025B87047503C00206C3C00201C7C0700C1
:10F4A40008B50020FEF7F2FEBDE808408020FEF714
:10F4B400EDBE08B50020FEF7F7FEBDE80840802049
:10F4C400FEF7F2BE38B505460C4602F08DFDA842A3
:10F4D40005BFD4E90001034B1020C3E9000108BFB4
:10F4E400002038BD703C00207FB5C38893421E467F
:10F4F40028BF164693420D46144620D9802002F0B8
:10F5040035FAB4FBF0F202FB1040B0FA80F0400987
:10F5140003900020CDE9015600F022FB01A98020D0
:10F52400FEF728FF044620B906498020FFF7CAFFEA
:10F534000446002000F024FB204604B070BD0020E7
:10F54400E6E700BF507C07002DE9F04F0B780E2B47
:10F5540087B004460D4613D8A3B1013B0D2B11D837
:10F56400DFE813F0120024001600100035003A0200
:10F5740010001000100010000F021A0227022F02C0
:10F58400852B1ED0062418E00320FFF771FFF9E74E
:10F59400AB4800F0A2FB30B1AA4B01221A60BFF3C2
:10F5A4006F8FBFF34F8FA84B1C780CB1002404E07D
:10F5B400A6494FF4876000F02BFB204607B0BDE856
:10F5C400F08FA14B1B78032BDCD10420DDE705234E
:10F5D4000DF10D008DF80C3002F096FC9DF80D70C5
:10F5E4009B4D002307F01F072B60032F00F2878138
:10F5F400DFE817F004001C017C01D80024B993490A
:10F6040040F25E3000F004FB9DF80D3013F0600F03
:10F61400C3F3411040F0C680DB099DF80E1000F0E2
:10F62400B280062918D0082900F0A080002940F0F3
:10F63400B980884C0222204607F0AAFB237843F0C5
:10F6440001022270844A1278910744BF43F00303F5
:10F65400237002227F490FE09DF81030022B11D055
:10F66400032B75D0012B40F09D80BDF81330002B87
:10F6740000F0AC80794912220DF10D00FFF734FF40
:10F6840004463BE0BDF81330002B00F09F80092BAB
:10F6940028BF09239846FEF709FEDFF8B0A1064605
:10F6A4004FF009097EBB6B4C6D494246204607F07A
:10F6B40046FB2771A4F80290FEF7E0FD18B1E37948
:10F6C40043F02003E371FEF7F1FD664BC3E9000448
:10F6D400C3F80880BDF81320DA60002000F040FA77
:10F6E40061498020FEF75AFE044620B95F49802014
:10F6F400FFF7E8FE0446002000F042FA062C51D041
:10F70400002C63D05AE0736823B9514640F2C720F5
:10F7140000F07EFA73685B6823B951464FF4327087
:10F7240000F076FA0024019473680022D3F804B040
:10F734003146012301A8D84740B9337A30461F44E3
:10F74400FFF706FEA144FFB20646ABE70134EBE740
:10F75400BDF81330002B39D0BDF811109DF80F00FF
:10F7640000F0C0F90146E8B1027885E7364A12781C
:10F77400052A03D1374A137001226BE7042A11D1F9
:10F78400344B1870F8E7013908290BD8DFE801F089
:10F794002B0A0E0A050A0A0A38002C4940F2823064
:10F7A40000F036FA03A8FEF7D1FD9DE0BDF80F3056
:10F7B400012BF7D1FEF762FD18B90F2402F00AFC01
:10F7C400FBE6254A137843F0020313702C68002CDF
:10F7D40000F0218102F008FC044600287FF4E6AE24
:10F7E40002F0B8FBE9E6BDF80F30012BDAD1FEF7E1
:10F7F40045FD0028E1D0184A137823F00203E4E71A
:10F80400114B1B78043B012B01D90824D6E79DF842
:10F814000F302BB9FEF74CFE0420FFF729FED5E785
:10F82400012B5AD1FEF724FE0520F6E79DF81100BE
:10F8340001A9FEF741FD8046D0B91024BEE700BF00
:10F84400783C00205C700240503C0020AC7B0700F8
:10F85400703C00207C3C00206C3C00203C7C070079
:10F864001D7C0700543C0020587C0700507C070096
:10F874009DF8041003AAFEF743FD062804467FF40E
:10F884003FAF9DF80D2012F0600F97D1644B9DF8A7
:10F8940004101F789DF80E30D60915D073B10A2BC9
:10F8A4008CD1052FB1D14046FEF7DCFD5D493246CF
:10F8B40008700DF10D00FFF717FE15E0052FA4D118
:10F8C40058490B800222F4E70B2B7FF477AF052F06
:10F8D4009BD1BDF80F30FF2B01D907246EE79DF8AB
:10F8E4000F204046FEF76EFD044609E79DF811001F
:10F8F400020706D19DF80D3013F0600F09D00624DD
:10F904005CE703A9FEF7FFFC062804467FF4F8AE83
:10F91400F0E79DF80E20424B9DF811401B78012A18
:10F924001DD0032A0CD0002AE9D1052B02D02307CD
:10F934007FF46BAF204602F0A3FA3A490880C1E78E
:10F944002707DCD4BDF80F20002AD8D1052B02D01C
:10F9540026077FF45AAF204602F074FA36E72007F0
:10F96400CDD4BDF80F20002AC9D1052B02D0210720
:10F974007FF44BAF204602F0A3FA204602F0B0FD1C
:10F9840024E7274B1B78002B3FF410AE264940F2A6
:10F994004C4000F03DF909E6214B1B78012B04D0C3
:10F9A400214940F2524000F033F90020FFF760FD96
:10F9B400FCE54FF08043D3F83834DA070AD5022047
:10F9C400F4E7174B1B78012B04D8174940F2664023
:10F9D40000F01EF90120E9E7CB78032B3FF4D2AD08
:10F9E4008B785B0604D0104940F2744000F010F9A3
:10F9F4000E4E336893B100227168E87832609847FC
:10FA0400044600287FF4DAAE336823B1AB78002BC8
:10FA14007FF4CCADE4E602F0D3FACEE50E24CDE6D5
:10FA2400503C00207C3C0020AC7B0700703C002054
:10FA340008B1402303600148704700BF7C3C0020AC
:10FA440070B54FF0805286B0D2F8A830D2F8A42016
:10FA540000926FEA83436FEA93430B4A0B4E9BB2C7
:10FA64000D2102A807F046F902AD002402A807F010
:10FA7400E4F9844201D306B070BD15F8013B06F8E1
:10FA8400013B0134F2E700BF607C0700BC3C00206E
:10FA9400F8B5124B53F820502B7813B9AE1C3046EE
:10FAA400F8BD0020FFF7C4FF0D4F0646013D0023BB
:10FAB40015F8012F5C1C2AB96400E4B244F44074C4
:10FAC4003480ECE71E2B03D93946FC2000F0A0F863
:10FAD400E3B22A7826F81320EAE700BF107D070076
:10FAE400697C0700034608B9FFF7D2BF012807D095
:10FAF400022805D0032803D0042801D0052809D101
:10FB0400054800EB4303587820B1044B53F82030E8
:10FB1400002BE9D100207047287D0700107D0700E5
:10FB240072B6024A1368013313607047CC3C00205C
:10FB3400034A1368013B136003B962B6704700BF00
:10FB4400CC3C0020EFF30583C3F308032BB9EFF398
:10FB54001480C04300F0010070470120704700008A
:10FB640008B5FFF7EFFF012803D00449432000F054
:10FB74004FF8BDE80840FFF7D3BF00BF347D07004E
:10FB840008B5FFF7DFFF012803D00449512000F036
:10FB94003FF8BDE80840FFF7CBBF00BF347D070046
:10FBA400EFF30583C3F308038BB1103B5AB2002A69
:10FBB400ABBF02F16043074A03F5614303F00F034F
:10FBC400ACBF93F80003D05C4009C0B270470F206B
:10FBD400704700BF14ED00E030B53AB11368DB4361
:10FBE4000A4D0144814204D1D84330BD4FF0FF3364
:10FBF400F6E710F8012B5340082213F0010418BF54
:10FC04002C46013A84EA5303F7D1EBE72083B8ED9D
:10FC140007B5CDE900016A46002144F2020002F072
:10FC2400FFFD03B05DF804FB10B5034653E8000F75
:10FC34000A4643E8002494F0000FF7D110BD10B534
:10FC4400034653E8000F40EA010243E8002494F01D
:10FC5400000FF6D110BD10B5034653E8002F42EA59
:10FC6400010043E8000494F0000FF6D110BD10B574
:10FC7400034653E8000F00EA010243E8002494F02D
:10FC8400000FF6D110BD10B5034653E8002F02EA69
:10FC9400010043E8000494F0000FF6D110BD10B544
:10FCA400034653E8002F02EB010043E8000494F0FC
:10FCB400000FF6D110BD10B5034653E8002FA2EB98
:10FCC400010043E8000494F0000FF6D110BD0121B7
:10FCD400FFF7B5BF0121FFF7BEBF0021FFF7C7BF84
:10FCE4000021FFF7D0BF000010B50446002834D02F
:10FCF40003681BB91A49FF20FFF78AFF636823B919
:10FD040017494FF48070FFF783FFA36823B91449A0
:10FD140040F20110FFF77CFFE36823B910494FF468
:10FD24008170FFF775FF238A23B90D4940F2031050
:10FD3400FFF76EFFD4E9012321689B1ADBB20A6046
:10FD4400013BDBB2FF2B226802D10020107110BDF1
:10FD54001168481C10600B70F2E70E20F7E700BF33
:10FD6400917D070038B5044620B911494FF49270CB
:10FD7400FFF74EFF0020FFF7F3FE22686368116867
:10FD8400994213D9481E106011F8015CE368218A76
:10FD940001FB0535A36811791B1ADBB2994200D225
:10FDA40013710020FFF7ECFE284638BD0025F8E764
:10FDB400917D070038B50C46054620B90E4940F23E
:10FDC4004710FFF725FF24B90B494FF4A470FFF740
:10FDD4001FFF0020FFF7C4FE2A681368591C116036
:10FDE400E968641A298AB4FBF1F41C70BDE8384050
:10FDF4000020FFF7C5BE00BF917D070010B5044683
:10FE040018B906493120FFF703FFA2682AB16369D4
:10FE14002168206998470023A36010BDE07D070096
:10FE24000EB433B5059D044618B911494220FFF7B5
:10FE3400EFFE63691BB90E494320FFF7E9FE23680F
:10FE44001BB90B494420FFF7E3FE63681BB908495B
:10FE54004520FFF7DDFE35B106AB01AA2946204651
:10FE6400019300F071F802B0BDE8304003B0704770
:10FE7400E07D0700826830B40468551C8560A15495
:10FE8400D0E901329A4202D330BCFFF7B7BF30BC8D
:10FE9400704700002DE9F84F9846DDE90A431546FE
:10FEA40082460F460A464FF00109AA420FD2C145C5
:10FEB40038BFC14613F0010B01D16CB900240126EF
:10FEC400B8F1010F1BD908F1FF386E43F8E709F1C7
:10FED4000109B2FBF5F2E8E79B070ED5B8F1000F74
:10FEE4000CBF30262026A145E9D2013C31465046BC
:10FEF400FFF7C0FF002CF6D1E0E72026F3E7B7FBBD
:10FF0400F6F39D42E1D9DFF83C80B7FBF6F35046A7
:10FF140018F8031006FB1377FFF7ACFF3346AB4228
:10FF2400B6FBF5F6F1D2BBF1000F02D00CB1A1453E
:10FF340001D3BDE8F88F20215046013CFFF79AFF1A
:10FF4400F4E700BF717E07002DE9F74F8846174696
:10FF5400054620B9B14940F25220FFF759FE6B69BA
:10FF640023B9AE494FF41570FFF752FE2B6823B93D
:10FF7400AA4940F25520FFF74BFE6B6823B9A74905
:10FF840040F25620FFF744FEB8F1000F00F0428122
:10FF940018F8011B49B92B7B002B00F03B81284644
:10FFA40003B0BDE8F04FFFF729BF252940F0B78023
:10FFB400002698F800302D2B424608F1010823D082
:10FFC400302B24D02B2B25D000242A2B02F1010125
:10FFD40023D13B681A1D1B683A601C440A461378F7
:10FFE4002E2B26D101324FF0000A104610F8011BC7
:0CFFF400A1F1300CBCF1090F1DD80A234C
:0200000270008C
:1000000003FB0A13A3F1300A0246F0E746F00106AB
:10001000D1E746F00206CEE746F00406CBE711F83A
:10002000013CA3F130000928DBD80A2202FB04348A
:10003000303C0A46CBE74FF0000A12F8011B01F0F2
:10004000FB0068289046F8D0782909D86F290CD889
:10005000632962D022D8252963D0582900F08880EE
:1000600098F80030002B95D197E770390829F7D818
:1000700001A353F821F000BFF3010700610007005E
:100080006100070081010700610007005F010700B0
:10009000610007006100070071010700642901D0B9
:1000A0006929DDD13A68D2F80090111D89EAE97218
:1000B0003960A2EBE9724FF0010B092A35DCD34518
:1000C00038BFD3462CB1B9F1000F01DB720700D560
:1000D000013CB30702D5BAF1000F03D0F00701D4F9
:1000E0004CBB0024B9F1000F2DDAC9F100092D2114
:1000F0002846FFF7C1FE06F00302022A04D1BAF136
:10010000000F01D11CBB0024CDE9004653460A2252
:1001100049462846FFF7C0FEA2E73B681A1D19783A
:100120003A602846FFF7A8FE9AE70A230BF1010B75
:10013000B2FBF3F2C1E7A345D4D220212846013C0B
:10014000FFF79AFECCE77107D5D52B21D0E7A34561
:10015000DAD230212846013CFFF78EFED2E739681B
:10016000CDE900460A1D3A6053460A220968D0E7E5
:1001700039680A1D3A60CDE9004653461022F5E77A
:100180003B681A1D3A6016F00106D3F8009028D19A
:10019000B9F1000F03D0484606F051FE0646B442BE
:1001A00000D904BB09F1FF3919F8011F00293FF4F8
:1001B00057AF2846FFF760FEF6E728460136FFF7FF
:1001C0005BFE19F806100029F7D1A642BFF448AF2C
:1001D000002C3FF445AF20212846013CFFF74CFEA0
:1001E000F3E70026EDE720212846013CFFF744FE17
:1001F000D5E73B681A1D3A60302128461C68FFF796
:100200003BFE78212846FFF737FE00220823CDE980
:100210000032214610227CE703B0BDE8F08F00BF1A
:10022000257E070070B50D461646044618B90849E4
:100230005520FFF7EFFC1DB905495620FFF7EAFCF2
:100240002B68256031462046BDE87040184700BF46
:10025000817E07002DE9F041DDF818800E46174633
:100260001D46044618B922498820FFF7D3FC1FB960
:100270001F498920FFF7CEFC23681BB91C498A203F
:10028000FFF7C8FC45BB1A498B20FFF7C3FCB20738
:1002900003D017499120FFF7BDFCBB0703D01449D9
:1002A0009220FFF7B7FCE3689E4204D322696B1EDD
:1002B0003344934203D90E499320FFF7ABFC2368E4
:1002C000CDF81880D3F80CE03A462B46314620464C
:1002D000F446BDE8F041604763685A68B5FBF2F345
:1002E00002FB1353002BD2D001498E20CDE700BF73
:1002F000817E07002DE9F0410D4616461F46044653
:1003000018B919499E20FFF785FC23681BB91649C7
:100310009F20FFF77FFC1EB91349A020FFF77AFC4E
:1003200063681B68013B2B4203D00F49A320FFF7F2
:1003300071FCE3689D4207D363681B686A1E03FB78
:1003400006232269934203D90749A520FFF762FCDF
:100350002368D3F810E032463B4629462046F4464F
:10036000BDE8F041604700BF817E070070B550B91D
:100370000E4D0F4C0026641B1423B4FBF3F4B4425F
:1003800008D1002010E00368002BF1D0BDE87040D8
:10039000DB6918472B6813B901361435EFE7DB69C1
:1003A000284698470028F7D070BD00BF08000020FD
:1003B0001C000020014B436000207047E47E0700D2
:1003C0000846704700207047024B1868003818BF75
:1003D00001207047D03C002008B50248FFF782FC9E
:1003E000002008BDD03C002008B510461A4606F093
:1003F000A8FC002008BD00002DE9F043814687B02D
:1004000014480E4615469846FFF763FC0446F0B9BB
:100410000746BD4215D10F48FFF764FCD9F80830F4
:100420005BB102228DF800200022CDE90126CDE942
:100430000325CDF8148068469847204607B0BDE8EC
:10044000F08306EB073000F0E9FB0137E1E7112408
:10045000F3E700BFD03C00202DE9F041804686B094
:1004600011480F4616461D46FFF733FC0446C8B92F
:10047000AA083146384600F0FFFB0B48FFF732FC74
:10048000D8F8083053B101228DF800200C9A05925B
:10049000CDE90147CDE9036568469847204606B097
:1004A000BDE8F0811124F9E7D03C00202DE9F74F99
:1004B00099469DF83030009388469346064618B911
:1004C0002349B620FFF7A6FBF18872794A43043A24
:1004D0004A4505D81E490192C420FFF79BFB019AAB
:1004E000DBF80070B6F806A007EB0901914209F1AC
:1004F000040488BFA2EB0907B4FBFAF5CBF800703F
:100500000AFB154445B9AAEB040BBB4528BFBB4603
:100510002FB903B0BDE8F08F3668013DF2E7009BCC
:10052000043408EB050034445A466BB12146A7EB6E
:100530000B0706F006FCBA455D443668D3464FF01B
:10054000000428BFBB46E3E701462046EFE700BFB3
:10055000107F0700FFF7CABBF8B546790146721E47
:100560000546002393422D6803D30024A64202D8F7
:10057000F8BD0133F6E70F682846FFF71DFC01348C
:100580003946F3E72DE9F843068ACD1C0746FFF705
:10059000EBFB043E35440446B5FBF6F5F0B14FF4F1
:1005A0008073EDB28380C680013D076081464FF0C5
:1005B0000008A84512D23846FFF7D6FB064648B1D8
:1005C00063790133637108F10108C9F8000007601D
:1005D0008146EEE72046FFF7BFFF34462046BDE8E0
:1005E000F88301210430FFF75CBB10B501210446FC
:1005F0000430FFF762FB10F0FF0F04D12046BDE886
:100600001040FFF7A9BF10BD1FB51446039200228A
:10061000009203AAFFF74AFF039BA34203D00349BA
:10062000F620FFF7F7FA04B010BD00BF107F0700F7
:100630001FB5144603920122009203AAFFF736FF6A
:10064000039BA34204D003494FF48070FFF7E2FA02
:1006500004B010BD107F0700836800225A60C3E910
:1006600004229A60DA601A607047000010B50D49E4
:10067000A1F58C72914201D800200FE08C1AE30F93
:1006800003EBE4035B1002EBC30452F83330834204
:1006900005D802D204F10802ECE7606810BD2146DB
:1006A000E8E700BF1C84070008B5FFF7DFFF024B37
:1006B000002808BF184608BDF08207002DE9F04F5A
:1006C000C9B008AA01F1400514464B780E781B0406
:1006D00043EA0663CE7833438E78043143EA062337
:1006E0008D4244F8043BF0D11024916B16464FEA3A
:1006F000F14383EA714383EA9123716A366852F8C1
:10070000045F31440B444FEAB54181EAF51181EAB7
:10071000D50101340B44402CD363E6D1D0E914E376
:100720000093836D0193C36D0293036E0393436E35
:100730000493836E0593C36E0693DDE9057BDDE9C3
:10074000031CDDE901592B4B009E079374464FF0C3
:100750000008079B53F8042B07934FEAF12383EA21
:10076000B11383EA716A08AB53F828301A440AEBD4
:10077000020327EA010A01EA0C028AEA02021A4489
:100780004FEA743A86EA05035A448AEAB40A06EA4A
:10079000050B234083EA0B038AEAB45A08F10108E7
:1007A0009A44B8F1400F02EB0903BB465244A946F4
:1007B00019D172440265009A22444265019A32447A
:1007C0008265029A2A44C265039A1A44049B02660F
:1007D0000B444366059B63448366069B3B44C366A8
:1007E00049B0BDE8F08F674635468C462646194627
:1007F0001446AEE71C84070030B5E0B10F4A10493B
:1008000000240025C0E91245C0E914120D4C0E4A1F
:100810000E4DC0E916420E4AC0E918520D4A8266D2
:1008200002F17452A2F523020023A2F6924203645D
:10083000C266184630BD0E20FCE700BF85AE67BB20
:1008400067E6096A72F36E3C3AF54FA57F520E5186
:100850008C68059BABD9831F70B50C46E8B1D2B943
:1008600000201BE0A5180026AC42F9D0036C14F858
:10087000012BC2540133402B0364F5D10146FFF72D
:100880001DFFD0E9123213F5007342F10002C0E9F6
:1008900012320664E8E70029E4D10E2070BD70B57D
:1008A0000D4616460446002875D0002973D0026C08
:1008B0008021372A815402F101034FF0000240D811
:1008C000382B39D1D4E91201226C0823E3FB020151
:1008D00003BAE3630B0A84F83A300B0C84F839301E
:1008E0000B0EC4E9120184F83B1084F8383021461D
:1008F0002046FFF7E3FE691E76B30023E26EDA407E
:1009000001F8012FA26EDA400A71626EDA400A72B3
:10091000226EDA400A73E26DDA400A74A26DDA40A0
:100920000A75626DDA400A76226DDA400833202BB0
:100930000A77E3D1002070BDE2540133C0E7E254EE
:1009400001333F2BFBD921462046FFF7B7FE382263
:10095000002106F01FFAB5E71823226DDA4001F8EE
:10096000012F626DDA400A71A26DDA400A72E26DFF
:10097000DA400A73226EDA400A74626EDA400A754F
:10098000A26EDA400A76E26EDA40083B13F1080FF5
:100990000A77E2D1CEE70E20CDE7F0B578B371B398
:1009A0006BB300241C600A44DB274FF0DC0C4FF0D3
:1009B000DD0E1C688A4204F1010500EB040604D137
:1009C0001D60C02333700020F0BD0E78C02E05D00E
:1009D000DB2E0CD01D600D78055506E01D60075517
:1009E0001C68651C1D6000F804C00131E1E71D6052
:1009F00006551C68651C1D6000F804E0F5E70E2034
:100A0000E2E710B580B3D0E902239A422ED00378F2
:100A1000012B0FD0022B21D053B9C02928D0DB29BC
:100A200002D10123037003E04368541C846099548D
:100A3000112006E0DC2905D0DD290AD0022303704D
:100A40000B2010BD511C43688160C02199540023C4
:100A5000E8E7511C81604368DB21F7E7C029E7D153
:100A6000002303708360E3E70E20EAE70420E8E751
:100A70001846E6E738B5074C051E04F1080318BF11
:100A80001C4623682BB11A6822605B682846984789
:100A9000F7E738BDDC3C002020B9054B01225A7035
:100AA000FFF7E8BF012802D1014A9070F8E77047CC
:100AB000D43C0020014B1878704700BFD43C002084
:100AC00038B50C4C23789BB90B486360A360236155
:100AD000E36000F007F9054600F018F901232370E0
:100AE000064BD3F800340BB10123A370284638BD60
:100AF0008525F5E7D43C0020990A07000000014055
:100B000038B51B4C2378054623B91A4940F23310F7
:100B1000FFF780F8637803F0FF00ABB115B16B68A5
:100B2000002098470020FFF71DF86368002001337C
:100B30006360FFF727F86368C3B9BDE838400D4923
:100B400040F24F10FFF766B8FFF70CF825B1A26826
:100B500013463BB92A60A5606368002BE5D100F01D
:100B6000F7F8E2E79D42F7D01B68F2E738BD00BF17
:100B7000D43C00201C85070038B50F4C237823B9DE
:100B80000E494FF4AA70FFF745F8636823B90B4983
:100B900040F25510FFF73EF80020FEF7E3FF6368D0
:100BA000013B6360656815B900F0EAF86570BDE85F
:100BB00038400020FEF7E6BFD43C00201C8507002B
:100BC00010B5074C23784BB9064B002808BF1846D0
:100BD00000F032F908B90123237010BD8520FCE72D
:100BE000E83C00207085070008B500F062F9BDE818
:100BF000084000F065B910B50446FFF7F5FF204640
:100C000000F040F900F04EF9002010BD024AD2F881
:100C10000034002BFBD0704700E001400A4908B5C2
:100C20000223C1F80435BFF36F8FBFF34F8FC1F8B4
:100C30000805FFF7EBFF0023C1F80435BFF36F8F02
:100C4000BFF34F8F08BD00BF00E0014010B5094C55
:100C50000123C4F80435BFF36F8FBFF34F8F0160DA
:100C6000FFF7D4FF0023C4F80435BFF36F8FBFF341
:100C70004F8F10BD00E001400E4B10B50124C3F8AA
:100C80000445BFF36F8FBFF34F8F01EB8204401A0F
:100C9000A14208D1074B0022C3F80425BFF36F8F90
:100CA000BFF34F8F10BD431851F8042B1A60FFF7A4
:100CB000ADFFEDE700E0014010B5034653E8000F3B
:100CC00000EA010243E8002494F0000FF6D110BDC1
:100CD00000F18040002382B0036003680193019B10
:100CE00002B0704710B5044618B90649A420FEF7B3
:100CF00091FF054B187918B901221C601A7110BDBB
:100D00008520FCE771850700EC3C002008B50C4B02
:100D10001B791BB90B49BD20FEF77CFF0A4B1A68F3
:100D2000D20704D4C02283F8002301221A604FF0B6
:100D300080420123C2F81835044A137008BD00BF71
:100D4000EC3C00207185070000E100E0F43C00204D
:100D500008B5094B1B7923B908494FF48170FEF798
:100D600059FF4FF48070FFF7B3FF4FF0804301222B
:100D7000C3F804231A6008BDEC3C0020718507000D
:100D800008B50D4B1B7923B90C494FF48570FEF75C
:100D900041FF4FF080420121C2F808134FF48070E8
:100DA000FFF796FF064B1960D2F80C3403F00113DD
:100DB000B3F1011FF8D008BDEC3C0020718507009D
:100DC00004000040114B1B6810B563B14FF48070F4
:100DD000FFF77EFF4FF080430122C3F808230C4B3E
:100DE00000201B6898470B4B1B6873B14FF482704F
:100DF000FFF76EFF4FF080430222C3F80823044B35
:100E0000BDE810401B680120184710BD00010040DC
:100E1000EC3C00200401004000F1804382B01A68DD
:100E2000002A14BF0120002004D000221A601B6891
:100E30000193019B02B0704710B5044618B90E49E2
:100E40007020FEF7E7FE0D4B1A789AB922784FF022
:100E5000804102F00102C1F87825094A1168C907EA
:100E600004D4C02182F800130121116001221A70FC
:100E7000002010BD8520FCE7C3850700043D00204D
:100E800000E100E010B5044618B90449ED20FEF772
:100E9000C1FE034B22681A6010BD00BFC385070066
:100EA000003D00204FF080434FF46072C3F80423EC
:100EB00070474FF080434FF46072C3F808237047C7
:100EC000014B00221A607047003D00204FF0804324
:100ED00070B5D3F8044366070ED54FF48470FFF75E
:100EE0009BFF48B1334D2A6822B933494FF48B70C8
:100EF000FEF790FE2B689847A5060FD54FF48A7031
:100F0000FFF78AFF50B12D4D2A6822B92A4940F2D5
:100F10001F10FEF77FFE2B680020984760060FD554
:100F20004FF48C70FFF778FF50B1244D2A6822B936
:100F300021494FF49370FEF76DFE2B68012098470E
:100F400021060FD54FF48E70FFF766FF50B11C4D90
:100F50002A6822B9184940F22F10FEF75BFE2B6871
:100F600000209847E2050FD54FF49070FFF754FF2B
:100F700050B1134D2A6822B90F494FF49B70FEF708
:100F800049FE2B6801209847A30511D54FF49270B4
:100F9000FFF742FF60B10A4C226822B9064940F2CD
:100FA0003D10FEF737FE23680220BDE87040184769
:100FB00070BD00BFF83C0020C3850700FC3C00204A
:100FC000003D002008B5FFF781FFBDE80840FFF7AE
:100FD000F9BE000010B5054C22681AB904494B202F
:100FE000FEF718FE2368BDE810401847083D0020B2
:100FF0000F86070010B5054C22681AB90449512024
:10100000FEF708FE2368BDE810401847103D002099
:101010000F860700064B1868043B1B680D2B04D194
:1010200001288CBF0020012070470020704700BFBE
:101030003401001007B5094A00231370084AADF8BF
:10104000053013708DF8073001238DF80430054BFF
:1010500001A81B68984703B05DF804FB183D002009
:10106000203F00201C3F0020704700009A422DE9DD
:10107000E84107460E4690461D4604D213494FF4F8
:10108000E470FEF7C7FD33684BB103F06043B3F182
:10109000005F04D00D4940F2C910FEF7BBFD706837
:1010A0003368854297BFC7E900350022401B5B19B2
:1010B0008EBFC7E9003270603360A84504D10038A4
:1010C00018BF0120BDE8E8810020FBE76786070024
:1010D0000B6803F06043B3F1005F70B506460C4641
:1010E000154604D00A4940F2EF10FEF793FD606800
:1010F00021682368854228BF0546401BC6E90015C4
:101100005A1960600038226018BF012070BD00BF0E
:10111000678607000B6803F06043B3F1005F70B5AA
:1011200006460D46144604D00C494FF40470FEF7F1
:1011300071FD69682A688C4228BF0C46002C14BFD8
:1011400010460020A1EB04012244C6E900046960B6
:101150002A6014BF0120002070BD00BF6786070011
:1011600038B500F00F05082D044604D907494FF49F
:101170002670FEF74FFD064814F0800FA0F1900393
:1011800008BF184600EB051038BD00BF6786070092
:101190008C3E002038B500F00F05082D044604D918
:1011A000054940F2AB20FEF735FD14F0800F14BF67
:1011B00000201020284438BD6786070038B500F0AD
:1011C0000F05082D044604D906494FF4B470FEF704
:1011D00021FD054A054B14F0800F08BF134633F874
:1011E000150038BD6786070008870700EC860700F2
:1011F00038B500F00F05082D044604D9084940F21F
:10120000B740FEF707FD074B14F0800F14BFD3F86B
:101210001005D3F81405E84000F0010038BD00BF08
:10122000B28607000070024038B500F00F05082DA7
:10123000044604D9074940F29110FEF7EBFC064A38
:10124000064B14F0800F08BF134601205B5D9840E9
:1012500038BD00BF67860700FE860700E2860700EC
:10126000F8B50B6803F06043B3F1005F06460C4627
:10127000174604D1104940F22E20FEF7CBFC6568DA
:10128000BD4228BF3D46402D04D90B494FF40E7096
:10129000FEF7C0FC094F21682A46384605F051FD8B
:1012A00060682268401BC6E900752A446060003807
:1012B000226018BF0120F8BD67860700243F002088
:1012C000F8B50B6803F06043B3F1005F06460D46C6
:1012D000174604D1124940F25120FEF79BFC6C687E
:1012E000BC4228BF3C46402C16D90D4940F25B2039
:1012F000FEF790FC0B4F29682246384605F021FD89
:1013000037606B6874601B1B6B602B68201E234466
:101310002B6018BF0120F8BD002CEBD13460F0E742
:1013200067860700243F0020024940F27B20FEF739
:1013300071BC00BF67860700010610B5044604D4DF
:1013400015494FF46B70FEF765FC220704D512496E
:1013500040F2AD30FEF75EFC230704D10E4940F2A7
:10136000AE30FEF757FC0D4B002220461A70FFF7F7
:10137000F7FE837B032B0AD12046FFF70BFF0121E9
:101380008140BDE810400648C943FFF795BC03689B
:10139000002BF1D010BD00BF67860700193D00206B
:1013A000883D00208720FFF7C7BF8620FFF7C4BF16
:1013B0008520FFF7C1BF8420FFF7BEBF8320FFF762
:1013C000BBBF8220FFF7B8BF8120FFF7B5BF000089
:1013D000084B00221A70084B93F89E20032A04D170
:1013E00006486FF00101FFF767BCD3F89030002B7F
:1013F000F6D07047193D0020FC3D0020883D0020BC
:10140000FFF7E6BF012273B502FA01F51D491E4E32
:101410000B6810F0800F43EA050304460B6025D0EB
:10142000FFF7CCFE00F1804000F51C30036853B19B
:1014300000230360BFF36F8FBFF34F8F802C12D058
:101440002046FFF779FF316829400AD106238DF83D
:1014500004308DF806408DF807100C4B01A81B686E
:10146000984702B070BDFFF7B3FFECE733681D4249
:10147000F7D106238DF804308DF806008DF807208B
:10148000EBE700BFF83D0020883D00201C3F002016
:1014900010B5054B1C782046FFF77CFE0146204620
:1014A000BDE81040FFF7AEBF203F002007B5002386
:1014B0008DF804300B4BD3F82025ADF80620D3F877
:1014C000C034094A002B13680CBF4FF480714FF0F1
:1014D00001210B431360054B01A81B68984703B01B
:1014E0005DF804FB00700240F83D00201C3F002026
:1014F00007B50E4B00221A700D4B93F88E20032A6D
:1015000011D0D3F8803073B90A486FF08071FFF7BB
:10151000D3FB06238DF804300823ADF80630064BC4
:1015200001A81B68984703B05DF804FB193D002033
:10153000FC3D0020883D00201C3F002007B5124BD9
:1015400000221A70114B93F81E21032A07D110486C
:101550006FF48071FFF7B0FB03B05DF804FBD3F8C4
:101560001031002BF8D16FF480710948FFF7A4FB0C
:1015700006238DF804308823ADF80630054B01A80A
:101580001B689847E8E700BF193D0020FC3D00209C
:10159000883D00201C3F00202A4B37B5D3F800447B
:1015A000C3F80044BFF36F8FBFF34F8FBFF36F8F4C
:1015B000BFF34F8FE1050ED5234B01221A70002394
:1015C000ADF805308DF8073002238DF804301F4B3D
:1015D00001A81B689847A2050DD51B4A002313706C
:1015E000ADF805308DF8073003238DF80430174B24
:1015F00001A81B689847630521D5134D2A78F2B1DD
:10160000104CD4F82C2522B1114940F2EB40FEF7E2
:1016100001FB1049012200232B70C4F808250A6041
:10162000BFF36F8FBFF34F8FADF805308DF80730E4
:1016300004238DF80430054B01A81B68984703B0BC
:1016400030BD00BF00700240183D00201C3F00204C
:10165000678607005870024010B5074C2278012AAF
:1016600004D006494FF4C560FEF7D4FA044A0023BB
:101670001360237010BD00BF1A3D0020678607006D
:101680001C3F002038B5324D2A78012A04D0314958
:1016900040F23160FEF7BEFA2F4B4FF40062C3F800
:1016A0000024BFF36F8FBFF34F8FFFF7B3FC80B100
:1016B0000020FEF757FA294B294A18680321002811
:1016C00041D149F275301860116018600020FEF7B2
:1016D00059FA214B0122C3F80025BFF36F8FBFF3E6
:1016E0004F8FD3F800241205FBD54FF40062C3F8E6
:1016F0000024BFF36F8FBFF34F8F00248022C3F805
:101700001C25C3F83045174B40F2FF121A60164BE8
:101710001C60164B1C70164B1C7002232B70FFF7BD
:1017200079FCA0B12046FEF71DFA0C4B0C4A186854
:1017300058B949F27531196010601960BDE8384038
:101740000020FEF71FBA1160C0E71460F6E738BD4D
:101750001A3D0020678607000070024000EC06403A
:1017600014ED0640F83D0020883D0020193D002082
:10177000203F002010B5114B1B78022B044604D0EB
:101780000F4940F2AB60FEF745FA0E4B0E480022BF
:101790001A700E4B944208BF18460D4B0D4AC3F801
:1017A0000403C02182F82713802151600122C3F86D
:1017B0000425BFF36F8FBFF34F8F10BD1A3D00207C
:1017C00067860700183D00200714E0010714C001D8
:1017D0000070024000E100E0024B1878003818BFAA
:1017E000012070471A3D0020034B1878012894BF50
:1017F00000200120704700BF1A3D0020044B1B78D9
:10180000012B83BF034B5868C0F3C0100020704702
:101810001A3D002000E100E010B50020FEF7A2F91B
:10182000094B1B7803F0FF0433B1084AD2F82C357A
:101830003BB10023C2F82C350020FEF7A3F9204667
:1018400010BD1C46F8E700BF183D002000700240A4
:10185000024B034AC3F80823704700BF00700240E0
:1018600004148001024B034AC3F80423704700BFED
:101870000070024004148001014B00221A7070476E
:10188000183D0020CB0770B505460C4600F0080651
:1018900007D5124940F24370FEF7BCF926B9402C37
:1018A0000DE00029FAD17EB10D4BD3F81C35DBB227
:1018B000802B0CBF4FF400734FF480639C4208D917
:1018C000064940F2477002E0044940F24570FEF7D5
:1018D000A1F92846FFF744FC848170BD67860700A4
:1018E00000700240F8B5054620B91E4940F2036079
:1018F000FEF790F91C4B1C7894BB1C4A1560012222
:101900001A702546274665F07F0615F0080FF6B2D7
:101910000CBF40214FF400713046FFF7B3FF304653
:10192000FFF71EFC0135092D877307608760EAD138
:10193000402100252046FFF7A5FF2046FFF710FCB9
:101940000134E4B2092C85730560856001D1002063
:10195000F8BD14F0080F14BF4FF400714021E9E7FF
:101960000820F5E7678607001A3D00201C3F00208D
:1019700008B5FFF7F5FB808908BD00F00F03082BC1
:1019800010B5044601D9FFF7CFFC2046BDE8104052
:10199000FFF72EBC2DE9F04781460F46FFF7FAFB13
:1019A000804627B9334940F29270FEF733F90020A0
:1019B000FEF7D8F819F00F0603D12F4B1B784B45D3
:1019C00054D12E4B1C682E4BE4431A680120A4B25C
:1019D00000FA08F8144314EA08049A4648D1484625
:1019E000FFF7BEFB0C2319F0800F054603FB06F63C
:1019F0002CD0244B3A681E4402F06042BB68B2F11E
:101A0000005F03F001031CD1CBB91F4B2B6097E89B
:101A10000700002386E80700DAF80000AB60AB732C
:101A20001A4B6E6040EA08008022CAF80000C3F832
:101A300004210020FEF7A6F82046BDE8F087144BED
:101A4000E4E70BB9134BE1E7134BDFE7134B1E44FD
:101A50003B684BB103F06043B3F1005F04D005492C
:101A600040F2EC70FEF7D6F80D4BCFE71024E0E71C
:101A70001124DEE767860700203F0020F83D0020A4
:101A8000883D00208C3D0020D110070000E100E0DF
:101A90001511070061120700C11207001C3D00204C
:101AA0006D1007002DE9F04107460D46FFF772FB68
:101AB000064625B91B4940F60200FEF7ABF80020A8
:101AC000FEF750F83B0703D1174B1B78BB4225D1DB
